:020000040800F2
:10000000A8040020D5000008A70E0008A50E0008CF
:1000100000000000000000000000000000000000E0
:10002000000000000000000000000000AB0E00080F
:100030000000000000000000A90E0008AD0E00083E
:10004000E7000008E7000008E7000008E7000008F4
:10005000E7000008E7000008F5010008E7000008D5
:1000600000000000E7000008E7000008E7000008C3
:10007000E7000008E7000008E7000008E7000008C4
:10008000E7000008E7000008E7000008E7000008B4
:1000900000000000E7000008E7000008E700000893
:1000A000E7000008E7000008E7000008E700000894
:1000B000E7000008E7000008000000000000000062
:1000C0000348854600F084F800480047C113000843
:1000D000A80400200448804704480047FEE7FEE7E4
:1000E000FEE7FEE7FEE7FEE7B50E0008C1000008E8
:1000F000F0B51FB40646002082B0054640240191A9
:1001000000901BE0019922460F46304600F04FF860
:10011000049A059B801A994110D31046194622462D
:1001200000F035F8361A8F41019722460120002150
:10013000009F00F02CF838184D4100902046641EB6
:100140000028DFDC019B00982946324607B0F0BD4D
:1001500070B50446002903D000202022012310E0BE
:10016000002801D00020C043C046C0460DE025460F
:10017000D5408D4205D30D469540641B1D469540E4
:1001800040191546521E002DF1DC214670BD10B5F8
:10019000202A04DB0146203A9140002010BD914006
:1001A00020239C1A0346E3401943904010BD10B52C
:1001B000202A04DB0846203AD040002110BD0B461F
:1001C000D340D0402024A21A91400843194610BDC4
:1001D000064C0125064E05E0E36807CC2B430C3C9A
:1001E00098471034B442F7D3FFF76EFFF4160008B7
:1001F0001417000880B5042000F00AF880BD000044
:1002000080B5042803D17948402100F0F1F880BD81
:10021000B0B50446074D2868204203D02C60204624
:1002200000F00AF86868204203D06C602046FFF7AF
:10023000E7FFB0BD0C18024070470000F0B58BB06E
:1002400007466548874205D0052000900D68002DBF
:1002500006D1BEE0032000900D68002D00D1B8E06B
:100260000123002006460193044608900990069158
:100270000A9712E03243059E584842600D682846AE
:10028000D840089A121D089208365B1CA41C099AD3
:10029000521C0992002800D19BE05A1E0198079237
:1002A000904005400495E9D005964E68122E0294C0
:1002B00061D80125B5404B4A15425CD00325A540C5
:1002C000BA68AA430699CF68A74017430A998F6076
:1002D000320907998A400A994F68874317430A9859
:1002E00047600A9F0699E843099A5400FA68024059
:1002F0008D680394A5401543FD6010223243122AF5
:1003000012D11C21089A11400F228A40079DED0846
:10031000AD007D192F6A9743069A12698A403A43C5
:100320000A9F06992A624E683A68024003253046C1
:100330002840039CA04010433860F000059E029CBA
:100340009CD5182030400F2282403E46079FAF4385
:100350003546224EF7193E6E964360370522120746
:1003600095420ED0204A954209D0204A9542009DE0
:1003700008D1022506E00320A040C043B6E70125CE
:1003800000E00025854035433D6015480568486814
:10039000C20302D5049E354301E0049EB5430A9F83
:1003A0000F4A15605568820301D5354300E0B54317
:1003B0000B4A5560094A1568C20201D5354300E071
:1003C000B543064A15605268800200D552E7B24331
:1003D00051E70BB0F0BDC046000C005000180240C1
:1003E000801802400600060000040050000800507B
:1003F00042690B4693430A401104C9188161704752
:10040000002A02D01822815070472822815070475C
:10041000054800687047C0461E48007802490A68CF
:10042000101808607047C046A0000020B0B5012435
:100430002002D3490A6802430A600025284600F0DA
:1004400009F8002801D02046B0BD00F025F82C4660
:100450002046B0BD70B50F4E31780124002916D06A
:1004600005467D20C000FFF773FE0146CF480068B7
:10047000FFF76EFE00F016FC032D08D8002806D109
:100480000024E0432946224600F028F87560204603
:1004900070BDC0460000002082B0094841680122BA
:1004A00011434160416811400191019911070268AF
:1004B0000A430260006808400090009802B070474C
:1004C0003C100240002805D41F2108400121814032
:1004D000014801607047C04600E100E0002805D4F3
:1004E0000322034693430C4A9A1806E00F22024067
:1004F000083A03239A43074BD2188007C00E89019C
:10050000C9B28140FF2383401068984308431060BC
:100510007047C0461CED00E000E400E0F0B581B09B
:10052000032569021A4E3246143A13688B4303437B
:100530001360012461020022884226D19B48016891
:100540003068400521D50092A70206204843114992
:10055000FFF7FEFD201A022816D0316839420FD06D
:10056000012811D0316839420AD000280CD03168F6
:10057000394205D0001D032806D031683942EAD13E
:10058000009A104601B0F0BD2A46104601B0F0BDF9
:100590001470004040420F00F0B583B00D460121B9
:1005A00000281BD001910290754800680724204064
:1005B000A84216D272490868A04328430860714EC9
:1005C000FFF726FF07466E4800682040A84208D083
:1005D000FFF71EFFC01BB042F5D90321084603B048
:1005E000F0BD029E30688107914B0CD5410703D5C1
:1005F00021031A680A431A600F2109021A688A4304
:10060000B16811431960C0071BD15D4800682040E4
:10061000A8422CD95A490868A04328430860594F7A
:10062000FFF7F6FE0646564800682040A8421ED056
:10063000FFF7EEFE801BB842F5D90321084603B050
:10064000F0BD0298406803285DD8810001A251588E
:100650008F46C046650600080B070008150700080E
:100660001F070008194608390968490559E0029A28
:10067000107840076E4B05D5200319688143D06878
:100680000843186018688006400F22D01A68382185
:100690000A406848082A23D01A680A40102A5ED106
:1006A000596803220A40032A00D063485968490662
:1006B000490F491CFFF74CFD5D4949684904490E43
:1006C00048435B494968490F491CFFF741FD584BB6
:1006D00006E01846083800688004410F5648C840B4
:1006E000196889093C220A40274989581F220A4073
:1006F000D0402E49086025480068FFF7ABFE014650
:10070000084603B0F0BD596D0AE01946083909687A
:10071000890306E0194608390968890101E0996DE5
:100720008907019900D459E71968A1430143196069
:10073000144FFFF76DFE06463D4800683821014022
:1007400002984068C000814200D15EE7FFF760FE7A
:10075000801BB842F0D90321084603B0F0BD1868E9
:100760000840202802D10120C003B9E718680840DA
:10077000182801D00020B3E77D200002B0E7C04672
:1007800000200240881300006C16000804000020BE
:100790000648006826490968890A1C220A4004495B
:1007A00089581F220A40D0407047C04608000020E8
:1007B000AC16000810B51E4C20688006400F06D00D
:1007C000226838210A401B48082A07D110BD083C7E
:1007D00020688004410F1848C84010BD22680A40B4
:1007E000102A15D1616803220A40032A00D012485A
:1007F00061684906490F491CFFF7AAFC6168490472
:10080000490E48436168490F491CFFF7A1FC10BD20
:1008100020680840202802D10120C00310BD2068B4
:100820000840182801D0002010BD7D20000210BD16
:100830000810024000127A000024F400F0B587B0DE
:100840000125002800D105E2049505900078C00735
:10085000F44F2AD0B868F96803252A468A4338211C
:10086000014010204840821850425041082914D0BD
:10087000002812D105984268012001048A4208D05C
:1008800005231B049A4200D006E182043B6813430F
:100890003B603A680A433A6008E13868800304D54F
:1008A00005984068002800D157E105980078800736
:1008B00016D405980078000745D4059A10784007AB
:1008C0004ED4D069002800D143E1B96838220A40EB
:1008D000102A00D0B6E0012800D012E1049DB9E151
:1008E000B9683820084010214140FA680326324098
:1008F00002235340CA18514251410125AC0200283D
:100900003AD0002938D13868059AD168002900D139
:10091000DAE00721C90288431169014339602802DE
:10092000396801433960FFF773FD05463868204296
:1009300000D0DCE0FFF76CFD401B0228F6D93546FD
:10094000284607B0F0BDB8683821014018293BD1CE
:10095000386E8007B1D5059880690028ADD1FCE0DC
:10096000B86838210140202945D1F86D8007A8D505
:1009700090680028A5D1F0E039682142059B03D09A
:10098000D968002900D165E17F2109027A688A438C
:10099000596909021143796000280DD10720C0026E
:1009A0003968814318690843386038688004400F0B
:1009B000B549C140B5480160B5480068FFF74AFD38
:1009C000002800D046E174E7386E0599896900294E
:1009D00000D1DBE0012108433866FFF719FD064628
:1009E000386E800700D568E7FFF712FD801B0325EE
:1009F0000228F5D92EE1012003900107F86B084089
:100A0000029006D1F86B0843F863F86B0840069033
:100A1000069801919F480068C0052CD403980402F1
:100A20009C49086820430860FFF7F2FC0646994895
:100A3000006820421FD1FFF7EBFC801B0325022832
:100A4000F5D907E101221306396899433960022874
:100A500000D086E0039304925406FFF7D9FC0646C3
:100A60003868204200D1B0E0FFF7D2FC801B03259C
:100A70000228F5D9EEE005988068874C012806D059
:100A8000052800D0D0E0F86D04210143F965F86D28
:100A900003990843F865D1E03B688B433B608104D0
:100AA0003B688B433B60002A00D180E04404FFF7A1
:100AB000AFFC06463868204200D0F6E6FFF7A8FCF7
:100AC000801B6428F6D9C5E0290288433860FFF707
:100AD0009FFC05463868204200D1EAE6FFF798FC03
:100AE000401B0228F6D93546284607B0F0BD7F20C6
:100AF00000027968814305984069000208437860E4
:100B0000D7E6F86803210140059B1A6A914224D177
:100B1000702101405A6A91421FD17F210902014090
:100B20009A6A1202914218D11F2149040140DA6ADF
:100B3000914212D107214A0602401C461B6B9A4281
:100B4000049D00D086E049070840616B884200D0D0
:100B500080E00025284607B0F0BD049D284607B078
:100B6000F0BDF8680325A843F860F8684B490140D8
:100B7000F9605606FFF74CFC044638683042E8D06E
:100B8000FFF746FC001B0228F7D963E001218843E8
:100B90003866FFF73DFC0646386E800700D48CE6C9
:100BA000FFF736FC801B03250228F5D952E04404E8
:100BB000FFF72EFC06463868204200D175E6FFF7A5
:100BC00027FC801B6428F6D944E0F86834490140CA
:100BD0000598026A456A836AC66A0196066B0296A0
:100BE000406B0A432A4319021143019A1143029AA6
:100BF00011430143F9603868039908433860049849
:100C00000007F9680143F960FFF702FC06463868FF
:100C100020429ED1FFF7FCFB801B03250228F6D95A
:100C200018E0C04600100240F96D039A9143F9653F
:100C3000F96D04229143F96500280ED0FFF7E8FB17
:100C40000646F86D800715D4FFF7E2FB801B0325ED
:100C5000A042F6D9284607B0F0BDFFF7D9FB0646FB
:100C6000F86D800706D5FFF7D3FB801B0325A04254
:100C7000F6D9EFE702980028059A00D021E6F86B34
:100C800001998843F8631CE60024F4000800002062
:100C9000040000200070004088130000FFFFFEEEFB
:100CA0008C80C111401E010E01D001207047074900
:100CB000074A5060074803680B4003218907591809
:100CC000016000209060072111607047FFFFFF0066
:100CD00010E000E020ED00E0B0B5002830D0044680
:100CE000054680356868002804D100202870204619
:100CF00000F028F824206860206801680125A943D5
:100D00000160204600F0DEF9012817D0A06A002813
:100D100002D0204600F0D6F80920C00221684A68B7
:100D200082434A6088682A229043886008680122CA
:100D300002430A60204600F02FF905462846B0BD60
:100D40000120B0BD80B586B000681249884201D04C
:100D500006B080BD012041040F4A93680B439360A5
:100D600093680B4001930199116801431160116868
:100D7000014000910590002104910390022002900F
:100D80000C20019005200007009901A9FFF756FAF1
:100D900006B080BD0044004034100240F0B587B07A
:100DA0000E460446842021580220202911D1012515
:100DB000002E19D00492002A16D001210D03A2683A
:100DC000AA420AD1F20708D02269002A05D10D46AD
:100DD0000AE00546284607B0F0BD03952746803750
:100DE0003A78012A054602D1284607B0F0BD05939E
:100DF0003A46274654370025D560117021200292CB
:100E00005060FFF705FB0690049878803880A06852
:100E1000039988420AD120690028049601D0002154
:100E200004910028059903D1064601E0049505992F
:100E3000029805700CE0049A10881949084021684E
:100E40008862921C04922E4605997888401E78800C
:100E50007888002810D000918021002520462A465D
:100E6000069B00F02DFA002810D1002EE3D0307838
:100E700021688862761CE7E7009140210025204622
:100E80002A46069B00F01CFA002803D003252846BA
:100E900007B0F0BD202002994860284607B0F0BD99
:100EA000FF010000FEE7FEE77047704780B5FFF7DF
:100EB000B3FA80BD0120C006014908607047C046F2
:100EC00008ED00E0B0B5816ACA070CD18A0714D4D6
:100ED0004A071CD40A0724D4CA062CD48A0634D460
:100EE0004A063CD44CE00122520403685C689443F7
:100EF000C26A22435A608A07EAD5012212040368B3
:100F00005C689443026B22435A604A07E2D501228F
:100F1000920403685C689443426B22435A600A0758
:100F2000DAD50122D20303685C689443826B2243C2
:100F30005A60CA06D2D50122120303689C68944302
:100F4000C26B22439A608A06CAD501225203036803
:100F50009C689443026C22439A604A0610D5012291
:100F60001305026854689C43456C2C4354609D42B1
:100F700006D103235B0554689C43836C2343536071
:100F8000090607D50121C904026853688B43C06C68
:100F900018435060B0BD0000F0B585B004468C2009
:100FA0000026265020468C30029027468037FFF7D7
:100FB0002FFA05462068016809070496039727D58C
:100FC000C169890224D4012047050190C60202E0CC
:100FD000C16939421CD1FFF71BFA421B2068016826
:100FE000374B9A4249D84907F2D5C1693142EFD00F
:100FF00006620D21490102688A4302608168019AF4
:10100000914381602020039A5060906002994FE0E4
:101010000168490727D5C069400224D4012087050B
:101020000190C60202E0C06938421CD1FFF7F0F916
:10103000421B20680168224B9A422CD84907F2D5FE
:10104000C1693142EFD006620D21490102688A432D
:1010500002608168019A914381602020039A506068
:101060009060029924E02020039A506090600499D7
:10107000E1660846117005B0F0BD0D2252019143A2
:1010800001608168019A914381602020039A506039
:10109000114608310CE00D22520191430160816834
:1010A000019A914381602020039A506011460831D3
:1010B0002020086003200499117005B0F0BDC046DF
:1010C000FFFFFF01F0B581B00446026811686F4868
:1010D0000840A16823690B4361691943E369194317
:1010E000656E0D430543156003273803516881433E
:1010F000E06808435060A169654DAA4202D0206AA9
:10110000084300E008469168624E0E400643966030
:10111000D06A0F218843616A0843D0625E488242E8
:101120000BD0AA420BD05D48824210D15C480068C7
:101130008007000F5B4E36580AE0002608E058484A
:101140000068000A0C2606405648865900E0102622
:101150002046683000905448AA4216D00125EA0380
:10116000934226D1082E00D987E0C0467E443679C6
:101170007600B74404825982528282825800FFF777
:1011800007FB00284DD0616A4EE00125082E00D9EA
:1011900073E0C0467E4436797600B744046E246E10
:1011A0001C6E6E6E2200FFF7F3FA002817D0616AFA
:1011B00019E0082E61D8C0467E4436797600B744DF
:1011C000045C4C5C455C5C5C4B00FFF7E1FA00287A
:1011D00040D0616A41E0FFF7EDFA0028E7D1002531
:1011E0004BE00120C0034900304A515AFEF7B0FFDE
:1011F00062685743B84240D3110388423DD8010E7C
:1012000056080002002380195941FEF771FF294951
:101210004118294A914230D22CE0FFF7CBFA00283E
:10122000B1D1002529E010464900204A515AFEF765
:101230008FFF400061684A081018FEF789FF1C49BB
:1012400001401AD00007400F084313E0FFF7B2FA3D
:101250000028BED1002510E010464900134A515A1B
:10126000FEF776FF61684A081018FEF771FF80B23A
:10127000102802D32168C860002510480099086032
:10128000002020676067284601B0F0BDF369FFCFFA
:1012900000800040FFF4FF1100440040003801408E
:1012A00054100240E41600080024F400CC16000894
:1012B000F0FF000000FDFFFF00FD0F000100010036
:1012C000F0B585B015460E4607460468E169314021
:1012D000891B4A424A410020AA4223D104933A463C
:1012E00080320A9B002B1FD0591C36D1E169314056
:1012F000891B4A424A41AA4214D1E1693140891B03
:101300004A424A41AA420DD1E1693140891B4A4211
:101310004A41AA4206D1E1693140891B4A424A4109
:10132000AA42E3D005B0F0BD0292FFF771F80D209C
:10133000400139680A6882430A6088680122904344
:1013400088602020029A50601046083000211170F9
:1013500020210160032005B0F0BD02920190012020
:101360000090C002039006E0C0693040801B4142FB
:101370004141A94221D11C46FFF74AF80499401A7D
:10138000A042D4D82346386801684907ECD5C16922
:10139000039A1142E8D0039901620D2149010268C4
:1013A0008A4302608168009A914381602020029AFA
:1013B0005060906010460C30C8E7019805B0F0BD51
:1013C00096B0FFF733F800240E940D940C940B9410
:1013D0000A94099401277802FFF7A0F8780715907E
:1013E0007806149078041390082012901194022526
:1013F00010950F95402001900D900C943E020B9695
:10140000089508A8FFF71AFA002803D0EFF3108018
:1014100072B6FEE703960794069407260496059590
:1014200004A82946FFF7B8F8002803D0EFF310808E
:1014300072B6FEE700960C940B945F4A1068042580
:1014400028431060106828400490049810682021F8
:1014500008431060106808400490049810683843EE
:10146000106010683840049004985448019E31463A
:101470002246FEF7C5FF0A97514809900295089544
:10148000504808AD2946FEF7D9FE0B940A940997F7
:1014900008964A482946FEF7D1FE062528462146E9
:1014A0002246FFF71BF82846FFF70CF846480C21A8
:1014B000E1225202454B036042608460C4600461D3
:1014C00041618461C461046244628462FFF704FC88
:1014D000002803D0EFF3108072B6FEE73C480068A6
:1014E0003C49FEF735FE401E010E3C4B0BD13A49FC
:1014F0003B4A506018690840032189074018186169
:10150000946000981060374B9869039A10420CD190
:101510003DA008A90A4638C838C238C838C238C8F9
:1015200038C229482122142311E018682B210143D5
:1015300019601868104318602BA108AE324639C9EB
:1015400039C239C939C220481E2214233146FFF757
:1015500025FC244E08A935A00A463C46A8C8A8C2C6
:10156000A8C8A8C2274616221425174C20462B4689
:10157000FFF714FC3807104A916801439160174A3D
:101580001068029908431060B06803990843B0607E
:10159000B0692B210843B061B0680843B06030BF28
:1015A000284805902848049004A9072220462B4685
:1015B000FFF7F4FBCEE7C0463410024000080050AD
:1015C00000002110001400501000002000440040D2
:1015D0000800002000A60E00FFFFFF0010ED00E055
:1015E00010E000E0007000404920686176652061ED
:1015F00077616B656E2066726F6D207374616E64C7
:101600002062790D0A00000049206861766520613A
:1016100077616B656E2066726F6D20706F77657293
:10162000206379636C650D0A000000002D2D2D2DBF
:101630002D474F494E4720544F20534C4545500DA0
:101640000A0000000D0A00004661696C02E008C84B
:10165000121F08C1002AFAD170477047002001E02C
:1016600001C1121F002AFBD17047000000000000DA
:10167000000000000000000000000000000000006A
:101680000000000000000000000000000100000059
:10169000020000000300000004000000060000003B
:1016A0000700000008000000090000000000000022
:1016B0000000000000000000000000000100000029
:1016C000020000000300000004000000010002000E
:1016D0000400060008000A000C0010002000400072
:1016E0008000000100000000040000000200000073
:1016F000080000001817000800000020100000007B
:101700004C1600082817000810000020980400005C
:101710005C1600080000000001000000040000004A
:081720000024F40000000000A9
:04000005080000C12E
:00000001FF
